:1000000019C033C032C031C030C02FC02EC02DC087
:100010002CC02BC02AC029C028C027C026C025C09C
:1000200024C023C022C021C020C01FC01EC01DC0CC
:100030001CC01BC011241FBECFEFD4E0DEBFCDBF5C
:1000400011E0A0E0B1E0E6E7F1E002C005900D921A
:10005000A030B107D9F711E0A0E0B1E001C01D92D6
:10006000A030B107E1F741D085C0CACF9C01809193
:100070008800909189008F3F9105A8F441E0121605
:1000800013068CF4809188009091890001969093DA
:100090008900809388004F5F842F992787FD909572
:1000A000281739077CF780E090E008959C01809143
:1000B000880090918900892BA9F041E0121613065F
:1000C0008CF4809188009091890001979093890029
:1000D000809388004F5F842F992787FD909528177C
:1000E00039077CF780E090E00895CFEFD4E0DEBFE1
:1000F000CDBF219A229A209A239A509851988091A4
:10010000800080688093800080918000806280936E
:1001100080008091800082608093800089E18093DC
:10012000810084E690E0909387008093860010928F
:1001300089001092880086E490E090938B00809371
:100140008A00289A2B98489B09C081E090E08EDFB6
:1001500080EA9FE0A0E0B0E00197F1F7499BF3CF80
:1001600081E090E0A3DF80EA9FE0A0E0B0E00197AB
:06017000F1F7E9CFFFCF1B
:00000001FF
